{
  "_format": "hh-sol-artifact-1",
  "contractName": "Lotterycontract",
  "sourceName": "contracts/lottery.sol",
  "abi": [
    {
      "inputs": [
        {
          "internalType": "uint256",
          "name": "_time",
          "type": "uint256"
        }
      ],
      "stateMutability": "nonpayable",
      "type": "constructor"
    },
    {
      "anonymous": false,
      "inputs": [
        {
          "indexed": false,
          "internalType": "address",
          "name": "_participants",
          "type": "address"
        },
        {
          "indexed": false,
          "internalType": "uint256",
          "name": "_value",
          "type": "uint256"
        }
      ],
      "name": "participants",
      "type": "event"
    },
    {
      "inputs": [],
      "name": "LotteryPotWinner",
      "outputs": [],
      "stateMutability": "nonpayable",
      "type": "function"
    },
    {
      "inputs": [],
      "name": "Potowner",
      "outputs": [
        {
          "internalType": "address",
          "name": "",
          "type": "address"
        }
      ],
      "stateMutability": "view",
      "type": "function"
    },
    {
      "inputs": [
        {
          "internalType": "uint256",
          "name": "",
          "type": "uint256"
        }
      ],
      "name": "Potplayers",
      "outputs": [
        {
          "internalType": "address payable",
          "name": "",
          "type": "address"
        }
      ],
      "stateMutability": "view",
      "type": "function"
    },
    {
      "inputs": [],
      "name": "amount",
      "outputs": [
        {
          "internalType": "uint256",
          "name": "",
          "type": "uint256"
        }
      ],
      "stateMutability": "view",
      "type": "function"
    },
    {
      "inputs": [],
      "name": "checkPlayers",
      "outputs": [
        {
          "internalType": "address payable[]",
          "name": "",
          "type": "address[]"
        }
      ],
      "stateMutability": "view",
      "type": "function"
    },
    {
      "inputs": [],
      "name": "enterLotteryPot",
      "outputs": [],
      "stateMutability": "payable",
      "type": "function"
    },
    {
      "inputs": [],
      "name": "getPotBalance",
      "outputs": [
        {
          "internalType": "uint256",
          "name": "",
          "type": "uint256"
        }
      ],
      "stateMutability": "view",
      "type": "function"
    },
    {
      "stateMutability": "payable",
      "type": "receive"
    }
  ],
  "bytecode": "0x608060405267016345785d8a00006001553480156200001d57600080fd5b5060405162000ebd38038062000ebd8339818101604052810190620000439190620000df565b33600260006101000a81548173ffffffffffffffffffffffffffffffffffffffff021916908373ffffffffffffffffffffffffffffffffffffffff160217905550428162000092919062000140565b600081905550506200019d565b600080fd5b6000819050919050565b620000b981620000a4565b8114620000c557600080fd5b50565b600081519050620000d981620000ae565b92915050565b600060208284031215620000f857620000f76200009f565b5b60006200010884828501620000c8565b91505092915050565b7f4e487b7100000000000000000000000000000000000000000000000000000000600052601160045260246000fd5b60006200014d82620000a4565b91506200015a83620000a4565b9250827fffffffffffffffffffffffffffffffffffffffffffffffffffffffffffffffff0382111562000192576200019162000111565b5b828201905092915050565b610d1080620001ad6000396000f3fe6080604052600436106100745760003560e01c8063aa8c217c1161004e578063aa8c217c146100cc578063dd6ad932146100f7578063e79d472514610122578063fee9df041461015f5761007b565b80635ee85e841461008057806371e8fb571461009757806372347017146100c25761007b565b3661007b57005b600080fd5b34801561008c57600080fd5b5061009561018a565b005b3480156100a357600080fd5b506100ac610374565b6040516100b99190610740565b60405180910390f35b6100ca61040c565b005b3480156100d857600080fd5b506100e1610532565b6040516100ee9190610740565b60405180910390f35b34801561010357600080fd5b5061010c610538565b604051610119919061084b565b60405180910390f35b34801561012e57600080fd5b506101496004803603810190610144919061089e565b6105c6565b60405161015691906108da565b60405180910390f35b34801561016b57600080fd5b50610174610605565b6040516101819190610916565b60405180910390f35b600260009054906101000a900473ffffffffffffffffffffffffffffffffffffffff1673ffffffffffffffffffffffffffffffffffffffff163373ffffffffffffffffffffffffffffffffffffffff161461021a576040517f08c379a00000000000000000000000000000000000000000000000000000000081526004016102119061098e565b60405180910390fd5b60026003805490501015610263576040517f08c379a000000000000000000000000000000000000000000000000000000000815260040161025a906109fa565b60405180910390fd5b600061026d61062b565b90506000600380549050826102829190610a49565b90506003818154811061029857610297610a7a565b5b9060005260206000200160009054906101000a900473ffffffffffffffffffffffffffffffffffffffff1673ffffffffffffffffffffffffffffffffffffffff166108fc6102e4610374565b9081150290604051600060405180830381858888f1935050505015801561030f573d6000803e3d6000fd5b50600067ffffffffffffffff81111561032b5761032a610aa9565b5b6040519080825280602002602001820160405280156103595781602001602082028036833780820191505090505b506003908051906020019061036f929190610680565b505050565b6000600260009054906101000a900473ffffffffffffffffffffffffffffffffffffffff1673ffffffffffffffffffffffffffffffffffffffff163373ffffffffffffffffffffffffffffffffffffffff1614610406576040517f08c379a00000000000000000000000000000000000000000000000000000000081526004016103fd90610b24565b60405180910390fd5b47905090565b6001543414610450576040517f08c379a000000000000000000000000000000000000000000000000000000000815260040161044790610b90565b60405180910390fd5b6000544211610494576040517f08c379a000000000000000000000000000000000000000000000000000000000815260040161048b90610bfc565b60405180910390fd5b6003339080600181540180825580915050600190039060005260206000200160009091909190916101000a81548173ffffffffffffffffffffffffffffffffffffffff021916908373ffffffffffffffffffffffffffffffffffffffff1602179055507fefef7771755c07c85b0eba2088759949519bae60ec7aab1b9d002b0260672c703334604051610528929190610c1c565b60405180910390a1565b60015481565b606060038054806020026020016040519081016040528092919081815260200182805480156105bc57602002820191906000526020600020905b8160009054906101000a900473ffffffffffffffffffffffffffffffffffffffff1673ffffffffffffffffffffffffffffffffffffffff1681526020019060010190808311610572575b5050505050905090565b600381815481106105d657600080fd5b906000526020600020016000915054906101000a900473ffffffffffffffffffffffffffffffffffffffff1681565b600260009054906101000a900473ffffffffffffffffffffffffffffffffffffffff1681565b6000600260009054906101000a900473ffffffffffffffffffffffffffffffffffffffff1642604051602001610662929190610cae565b6040516020818303038152906040528051906020012060001c905090565b8280548282559060005260206000209081019282156106f9579160200282015b828111156106f85782518260006101000a81548173ffffffffffffffffffffffffffffffffffffffff021916908373ffffffffffffffffffffffffffffffffffffffff160217905550916020019190600101906106a0565b5b509050610706919061070a565b5090565b5b8082111561072357600081600090555060010161070b565b5090565b6000819050919050565b61073a81610727565b82525050565b60006020820190506107556000830184610731565b92915050565b600081519050919050565b600082825260208201905092915050565b6000819050602082019050919050565b600073ffffffffffffffffffffffffffffffffffffffff82169050919050565b60006107b282610787565b9050919050565b6107c2816107a7565b82525050565b60006107d483836107b9565b60208301905092915050565b6000602082019050919050565b60006107f88261075b565b6108028185610766565b935061080d83610777565b8060005b8381101561083e57815161082588826107c8565b9750610830836107e0565b925050600181019050610811565b5085935050505092915050565b6000602082019050818103600083015261086581846107ed565b905092915050565b600080fd5b61087b81610727565b811461088657600080fd5b50565b60008135905061089881610872565b92915050565b6000602082840312156108b4576108b361086d565b5b60006108c284828501610889565b91505092915050565b6108d4816107a7565b82525050565b60006020820190506108ef60008301846108cb565b92915050565b600061090082610787565b9050919050565b610910816108f5565b82525050565b600060208201905061092b6000830184610907565b92915050565b600082825260208201905092915050565b7f4e6f7420616e206f776e65720000000000000000000000000000000000000000600082015250565b6000610978600c83610931565b915061098382610942565b602082019050919050565b600060208201905081810360008301526109a78161096b565b9050919050565b7f706f7477696e6e657273206e6f7420757020746f203200000000000000000000600082015250565b60006109e4601683610931565b91506109ef826109ae565b602082019050919050565b60006020820190508181036000830152610a13816109d7565b9050919050565b7f4e487b7100000000000000000000000000000000000000000000000000000000600052601260045260246000fd5b6000610a5482610727565b9150610a5f83610727565b925082610a6f57610a6e610a1a565b5b828206905092915050565b7f4e487b7100000000000000000000000000000000000000000000000000000000600052603260045260246000fd5b7f4e487b7100000000000000000000000000000000000000000000000000000000600052604160045260246000fd5b7f796f752061696e277420746865206f776e657221000000000000000000000000600082015250565b6000610b0e601483610931565b9150610b1982610ad8565b602082019050919050565b60006020820190508181036000830152610b3d81610b01565b9050919050565b7f4e6f7420656e6f7567682066756e642100000000000000000000000000000000600082015250565b6000610b7a601083610931565b9150610b8582610b44565b602082019050919050565b60006020820190508181036000830152610ba981610b6d565b9050919050565b7f43686965662120796f752063616e277420706c6163652061206265742e2e2e00600082015250565b6000610be6601f83610931565b9150610bf182610bb0565b602082019050919050565b60006020820190508181036000830152610c1581610bd9565b9050919050565b6000604082019050610c316000830185610907565b610c3e6020830184610731565b9392505050565b60008160601b9050919050565b6000610c5d82610c45565b9050919050565b6000610c6f82610c52565b9050919050565b610c87610c82826108f5565b610c64565b82525050565b6000819050919050565b610ca8610ca382610727565b610c8d565b82525050565b6000610cba8285610c76565b601482019150610cca8284610c97565b602082019150819050939250505056fea26469706673582212201b62d11967cb12e775781c7fac839e9db7751b7e495a440554cbb3840ec9abfc64736f6c63430008090033",
  "linkReferences": {},
  "deployedLinkReferences": {}
}