{
  "_format": "hh-sol-artifact-1",
  "contractName": "taskTracker",
  "sourceName": "contracts/To-do.sol",
  "abi": [
    {
      "anonymous": false,
      "inputs": [
        {
          "indexed": false,
          "internalType": "uint256",
          "name": "_index",
          "type": "uint256"
        },
        {
          "indexed": false,
          "internalType": "bool",
          "name": "status",
          "type": "bool"
        }
      ],
      "name": "TodoCompleted",
      "type": "event"
    },
    {
      "anonymous": false,
      "inputs": [
        {
          "indexed": false,
          "internalType": "bool",
          "name": "status",
          "type": "bool"
        },
        {
          "indexed": false,
          "internalType": "string",
          "name": "input",
          "type": "string"
        }
      ],
      "name": "TodoCreated",
      "type": "event"
    },
    {
      "anonymous": false,
      "inputs": [
        {
          "indexed": false,
          "internalType": "uint256",
          "name": "_index",
          "type": "uint256"
        }
      ],
      "name": "TodoDeleted",
      "type": "event"
    },
    {
      "inputs": [
        {
          "internalType": "uint256",
          "name": "",
          "type": "uint256"
        }
      ],
      "name": "Todos",
      "outputs": [
        {
          "internalType": "bool",
          "name": "status",
          "type": "bool"
        },
        {
          "internalType": "string",
          "name": "input",
          "type": "string"
        }
      ],
      "stateMutability": "view",
      "type": "function"
    },
    {
      "inputs": [
        {
          "internalType": "uint256",
          "name": "_index",
          "type": "uint256"
        }
      ],
      "name": "checkTodo",
      "outputs": [
        {
          "internalType": "bool",
          "name": "",
          "type": "bool"
        },
        {
          "internalType": "string",
          "name": "",
          "type": "string"
        }
      ],
      "stateMutability": "view",
      "type": "function"
    },
    {
      "inputs": [
        {
          "internalType": "uint256",
          "name": "_index",
          "type": "uint256"
        }
      ],
      "name": "completedTodo",
      "outputs": [],
      "stateMutability": "nonpayable",
      "type": "function"
    },
    {
      "inputs": [
        {
          "internalType": "bool",
          "name": "_status",
          "type": "bool"
        },
        {
          "internalType": "string",
          "name": "_input",
          "type": "string"
        }
      ],
      "name": "createTodo",
      "outputs": [],
      "stateMutability": "nonpayable",
      "type": "function"
    },
    {
      "inputs": [
        {
          "internalType": "uint256",
          "name": "_index",
          "type": "uint256"
        }
      ],
      "name": "deleteTodo",
      "outputs": [],
      "stateMutability": "nonpayable",
      "type": "function"
    },
    {
      "inputs": [
        {
          "internalType": "uint256",
          "name": "_index",
          "type": "uint256"
        },
        {
          "internalType": "string",
          "name": "_input",
          "type": "string"
        }
      ],
      "name": "updateTodo",
      "outputs": [],
      "stateMutability": "nonpayable",
      "type": "function"
    }
  ],
  "bytecode": "0x608060405234801561001057600080fd5b50610e18806100206000396000f3fe608060405234801561001057600080fd5b50600436106100625760003560e01c80636e3c673814610067578063b5be277114610083578063d534ee881461009f578063e6fc4fd6146100bb578063f2581a6e146100ec578063ff19f95c1461011d575b600080fd5b610081600480360381019061007c919061088e565b610139565b005b61009d60048036038101906100989190610a39565b6102dc565b005b6100b960048036038101906100b49190610a95565b6103a0565b005b6100d560048036038101906100d0919061088e565b6103e3565b6040516100e3929190610b88565b60405180910390f35b6101066004803603810190610101919061088e565b6104ac565b604051610114929190610b88565b60405180910390f35b6101376004803603810190610132919061088e565b6105a1565b005b6000805490508110610180576040517f08c379a000000000000000000000000000000000000000000000000000000000815260040161017790610c04565b60405180910390fd5b60008190505b60016000805490506101989190610c53565b8110156102525760006001836101ae9190610c53565b815481106101bf576101be610c87565b5b9060005260206000209060020201600083815481106101e1576101e0610c87565b5b90600052602060002090600202016000820160009054906101000a900460ff168160000160006101000a81548160ff021916908315150217905550600182018160010190805461023090610ce5565b61023b9291906106d4565b50905050808061024a90610d17565b915050610186565b50600080548061026557610264610d60565b5b6001900381819060005260206000209060020201600080820160006101000a81549060ff021916905560018201600061029e9190610761565b505090557f1072e4eeea43a52d09f5b6dfc870a079948f706133840ce9239aebc57fabb65f816040516102d19190610d9e565b60405180910390a150565b600060405180604001604052808415158152602001838152509050600081908060018154018082558091505060019003906000526020600020906002020160009091909190915060008201518160000160006101000a81548160ff021916908315150217905550602082015181600101908051906020019061035f9291906107a1565b5050507f3f65d0e7827223eec87feda7f45337dcc89a51399a9c0421239fc3551fae282c8383604051610393929190610b88565b60405180910390a1505050565b60008083815481106103b5576103b4610c87565b5b90600052602060002090600202019050818160010190805190602001906103dd9291906107a1565b50505050565b600081815481106103f357600080fd5b90600052602060002090600202016000915090508060000160009054906101000a900460ff169080600101805461042990610ce5565b80601f016020809104026020016040519081016040528092919081815260200182805461045590610ce5565b80156104a25780601f10610477576101008083540402835291602001916104a2565b820191906000526020600020905b81548152906001019060200180831161048557829003601f168201915b5050505050905082565b6000606060008084815481106104c5576104c4610c87565b5b90600052602060002090600202016040518060400160405290816000820160009054906101000a900460ff1615151515815260200160018201805461050990610ce5565b80601f016020809104026020016040519081016040528092919081815260200182805461053590610ce5565b80156105825780601f1061055757610100808354040283529160200191610582565b820191906000526020600020905b81548152906001019060200180831161056557829003601f168201915b5050505050815250509050806000015181602001519250925050915091565b60008082815481106105b6576105b5610c87565b5b90600052602060002090600202016040518060400160405290816000820160009054906101000a900460ff161515151581526020016001820180546105fa90610ce5565b80601f016020809104026020016040519081016040528092919081815260200182805461062690610ce5565b80156106735780601f1061064857610100808354040283529160200191610673565b820191906000526020600020905b81548152906001019060200180831161065657829003601f168201915b50505050508152505090508060000151158160000190151590811515815250507fb84a3507a15618a089880b44621cbac93a5991ec03f5e02e0c0b70273f94e71c8282600001516040516106c8929190610db9565b60405180910390a15050565b8280546106e090610ce5565b90600052602060002090601f0160209004810192826107025760008555610750565b82601f106107135780548555610750565b8280016001018555821561075057600052602060002091601f016020900482015b8281111561074f578254825591600101919060010190610734565b5b50905061075d9190610827565b5090565b50805461076d90610ce5565b6000825580601f1061077f575061079e565b601f01602090049060005260206000209081019061079d9190610827565b5b50565b8280546107ad90610ce5565b90600052602060002090601f0160209004810192826107cf5760008555610816565b82601f106107e857805160ff1916838001178555610816565b82800160010185558215610816579182015b828111156108155782518255916020019190600101906107fa565b5b5090506108239190610827565b5090565b5b80821115610840576000816000905550600101610828565b5090565b6000604051905090565b600080fd5b600080fd5b6000819050919050565b61086b81610858565b811461087657600080fd5b50565b60008135905061088881610862565b92915050565b6000602082840312156108a4576108a361084e565b5b60006108b284828501610879565b91505092915050565b60008115159050919050565b6108d0816108bb565b81146108db57600080fd5b50565b6000813590506108ed816108c7565b92915050565b600080fd5b600080fd5b6000601f19601f8301169050919050565b7f4e487b7100000000000000000000000000000000000000000000000000000000600052604160045260246000fd5b610946826108fd565b810181811067ffffffffffffffff821117156109655761096461090e565b5b80604052505050565b6000610978610844565b9050610984828261093d565b919050565b600067ffffffffffffffff8211156109a4576109a361090e565b5b6109ad826108fd565b9050602081019050919050565b82818337600083830152505050565b60006109dc6109d784610989565b61096e565b9050828152602081018484840111156109f8576109f76108f8565b5b610a038482856109ba565b509392505050565b600082601f830112610a2057610a1f6108f3565b5b8135610a308482602086016109c9565b91505092915050565b60008060408385031215610a5057610a4f61084e565b5b6000610a5e858286016108de565b925050602083013567ffffffffffffffff811115610a7f57610a7e610853565b5b610a8b85828601610a0b565b9150509250929050565b60008060408385031215610aac57610aab61084e565b5b6000610aba85828601610879565b925050602083013567ffffffffffffffff811115610adb57610ada610853565b5b610ae785828601610a0b565b9150509250929050565b610afa816108bb565b82525050565b600081519050919050565b600082825260208201905092915050565b60005b83811015610b3a578082015181840152602081019050610b1f565b83811115610b49576000848401525b50505050565b6000610b5a82610b00565b610b648185610b0b565b9350610b74818560208601610b1c565b610b7d816108fd565b840191505092915050565b6000604082019050610b9d6000830185610af1565b8181036020830152610baf8184610b4f565b90509392505050565b7f546f646f277320646f6573206e6f742065786973742100000000000000000000600082015250565b6000610bee601683610b0b565b9150610bf982610bb8565b602082019050919050565b60006020820190508181036000830152610c1d81610be1565b9050919050565b7f4e487b7100000000000000000000000000000000000000000000000000000000600052601160045260246000fd5b6000610c5e82610858565b9150610c6983610858565b925082821015610c7c57610c7b610c24565b5b828203905092915050565b7f4e487b7100000000000000000000000000000000000000000000000000000000600052603260045260246000fd5b7f4e487b7100000000000000000000000000000000000000000000000000000000600052602260045260246000fd5b60006002820490506001821680610cfd57607f821691505b60208210811415610d1157610d10610cb6565b5b50919050565b6000610d2282610858565b91507fffffffffffffffffffffffffffffffffffffffffffffffffffffffffffffffff821415610d5557610d54610c24565b5b600182019050919050565b7f4e487b7100000000000000000000000000000000000000000000000000000000600052603160045260246000fd5b610d9881610858565b82525050565b6000602082019050610db36000830184610d8f565b92915050565b6000604082019050610dce6000830185610d8f565b610ddb6020830184610af1565b939250505056fea2646970667358221220cdfd72aa2777392360753027d9ae3051815e899e79b87bc37a0124b7256a4c6864736f6c63430008090033",
  "linkReferences": {},
  "deployedLinkReferences": {}
}